:1000000012C02CC02BC02AC029C028C027C026C0BF
:1000100025C06BC023C022C021C020C01FC01EC08D
:100020001DC01CC01BC011241FBECFE5D4E0DEBF25
:10003000CDBF10E0A0E6B0E0E4E2F3E002C005903E
:100040000D92A436B107D9F720E0A4E6B0E001C0D4
:100050001D92AA36B207E1F739D162C1D1CF86E04D
:1000600087BB81EF8FBD089586E087BB8FEF90E05F
:100070009BBD8ABD99BD88BD82E08EBD089517BA2B
:100080008FEF90E09BBD8ABD99BD88BD1EBC9BBD16
:100090008ABD99BD88BD089589B7816089BF0895DB
:1000A000DEDFFADF8FEF81BBA09AA19AA29AA39A12
:1000B000C09A7894089583B7826083BF089583B708
:1000C00013BE0895979A089582B312BA089585B31E
:1000D00015BA85B315BA85B315BA0895AB9A0895C4
:1000E000AB980895F1DFF3DFFBCF1F920F920FB6AD
:1000F0000F9211242F933F934F935F936F937F93AE
:100100008F939F93AF93BF93EF93FF93809168007A
:100110009091690001969093690080936800209106
:100120006600309167002F5F3F4F30936700209348
:1001300066008130910519F482B391E005C08431E5
:10014000910529F482B392E0892782BB2CC08832C2
:10015000910519F482B394E0F7CF8C33910519F42B
:1001600082B398E0F1CF8035910519F482B390E124
:10017000EBCF8436910519F482B390E2E5CF20915C
:1001800064008837910541F410926900109268006C
:100190002F5F2093640007C02C3329F470DF8FDFBA
:1001A000A1DF109264008091660090916700813019
:1001B000910521F4A998AA98A89A4EC0883C910567
:1001C00019F4A898A99A48C0803921E0920719F437
:1001D000A998AA9A41C0883522E0920721F4A898EC
:1001E000A998AA9822C08C3622E0920709F41DC073
:1001F000803822E0920709F418C0843922E092077F
:1002000009F413C0883A22E0920709F40EC08C3B2F
:1002100022E0920709F409C0803D22E0920709F428
:1002200004C0843E22E0920769F485B391E08927F7
:1002300085BB85B392E0892785BB85B394E0892788
:1002400085BB0AC0883F924039F410926700109233
:100250006600A898A998AA98FF91EF91BF91AF91D5
:100260009F918F917F916F915F914F913F912F91CE
:100270000F900FBE0F901F901895309160003613AD
:1002800024C04091610020916300442349F026304E
:1002900010F0255008C010926300109261000FC04A
:1002A0002A3F20F42B5F2093630009C02FEF209397
:1002B000630021E02093610031953093600020912C
:1002C000630030E0FC01318320830895E9DED0E44F
:1002D00087E893E10197F1F700C0000061E08AE44C
:1002E00090E0CBDF6FEF88E490E0C7DFC11114C06E
:1002F000B099EECF82B38D2782BB83ED90E3019757
:10030000F1F700C0000082B38D2782BBDBDEE6DEA2
:10031000ABDED1DEC1E0DCCFB09BDACFCF5FD8CF90
:04032000F894FFCF7F
:040324000101FFFFD5
:00000001FF
