:1000000012C02CC02BC02AC029C028C027C026C0BF
:1000100025C05CC023C022C021C020C01FC01EC09C
:100020001DC01CC01BC011241FBECFE5D4E0DEBF25
:10003000CDBF10E0A0E6B0E0ECEAF1E002C0059030
:100040000D92A436B107D9F720E0A4E6B0E001C0D4
:100050001D92AA36B207E1F719D0A6C0D1CF89B751
:10006000816089BF0895FBDF8FEF81BBA39AC09A9F
:100070007894089583B7826083BF089583B713BED1
:100080000895AB9A0895AB980895FDCFECDFD0E4C6
:1000900087E893E10197F1F700C00000C11112C099
:1000A000B099F6CF82B38D2782BB83ED90E30197A1
:1000B000F1F700C0000082B38D2782BBE2DFDADFF8
:1000C000C1E0E6CFB09BE4CFCF5FE2CF1F920F92AB
:1000D0000FB60F9211242F933F934F935F936F931B
:1000E0007F938F939F93AF93BF93EF93FF938091F1
:1000F0006800909169000196909369008093680070
:1001000020916600309167002F5F3F4F309367006A
:10011000209366008130910519F482B391E005C007
:100120008431910529F482B392E0892782BB2BC0E8
:100130008832910519F482B394E0F7CF8C3391059E
:1001400019F482B398E0F1CF8035910519F482B3A8
:1001500090E1EBCF8436910519F482B390E2E5CFBC
:10016000209164008837910541F410926900109243
:1001700068002F5F2093640006C02C3321F47EDFDB
:1001800084DF10926400FF91EF91BF91AF919F9136
:100190008F917F916F915F914F913F912F910F9030
:0C01A0000FBE0F901F901895F894FFCF31
:0401AC000101FFFF4F
:00000001FF
