:1000000012C021C020C01FC01EC01DC01CC01BC00C
:100010001AC04BC018C017C016C015C014C013C0FA
:1000200012C011C010C011241FBECFE5D4E0DEBF46
:10003000CDBF20E0A0E6B0E001C01D92A336B2071C
:10004000E1F71BD09CC0DCCF89B7816089BF0895E0
:10005000FBDF84B38F6184BB87B38E6387BB909AC9
:100060007894089583B7826083BF089583B78D7FA6
:1000700083BF0895089508950895EADF87E893E11E
:100080000197F1F700C0000087E893E10197F1F7CD
:1000900000C00000C11105C08099F6CFE3DFC1E0C8
:1000A000F3CF809BF1CFCF5FEFCF1F920F920FB6B0
:1000B0000F9211242F933F934F935F936F937F93EE
:1000C0008F939F93AF93BF93EF93FF9380916100C2
:1000D0009091620001969093620080936100843653
:1000E000910529F485B38F6185BBC19A2FC0883CE7
:1000F000910521F488B318BAC29A28C08C3221E045
:10010000920721F488B318BAC39A20C0803921E03D
:10011000920721F488B318BAC49A18C0843F21E02A
:10012000920721F488B318BAC59A10C08835924056
:1001300069F488B318BA83E690E0909362008093E4
:100140006100809160008F5F80936000809160000B
:100150008C3321F48BDF90DF10926000FF91EF91E0
:10016000BF91AF919F918F917F916F915F914F91CF
:100170003F912F910F900FBE0F901F901895F894FC
:02018000FFCFAF
:00000001FF
