:1000000010C01FC01EC01DC01CC01BC01AC019C01C
:1000100018C044C016C015C014C013C012C011C00F
:1000200010C011241FBECFE5D1E0DEBFCDBF20E060
:10003000A0E6B0E001C01D92AA36B207E1F70FD0EA
:10004000AFC0DECF80B7826080BF87E286BF89B74E
:10005000826089BF089583B7856083BF0895F2DF0A
:100060008FEF8ABBD79AC09A7894C11110C0B0990B
:10007000FECF8BB380588BBB83ED90E30197F1F7F4
:1000800000C000008BB380588BBBE5DFC1E0B09BA4
:10009000ECCFCF5FEACF83B713BE08951F920F92C4
:1000A0000FB60F9211242F933F934F935F936F934B
:1000B0007F938F939F93AF93BF93EF93FF93909111
:1000C0006300892F8F5F80936300809162008F5F50
:1000D00080936200809161008F5F8093610098300F
:1000E00020F48BB391E089278BBB90916300892F1B
:1000F0008950883040F48BB322E082278BBB90314B
:1001000010F010926300809162008350883020F4D8
:100110008BB394E089278BBB90916200892F8B5021
:10012000883048F48BB328E082278BBB923118F0DB
:1001300082E080936200809161008550883020F4D5
:100140008BB390E189278BBB90916100892F8D50F3
:10015000883070F48BB320E282278BBB943140F05F
:1001600084E080936100809160008F5F80936000E5
:1001700080916000823118F08EDF10926000FF9154
:10018000EF91BF91AF919F918F917F916F915F910F
:100190004F913F912F910F900FBE0F901F90189588
:0401A000F894FFCF01
:00000001FF
